{
  "transactions": [
    {
      "hash": "0xd5c00fd1d414ce187ae281eee7720532e6a6d81eaa4150b1fdd39fffd3cf5931",
      "transactionType": "CALL",
      "contractName": null,
      "contractAddress": "0x20323142295beA25c6528c2f3d822E1e2129a130",
      "function": "safeMint(address,string)",
      "arguments": [
        "0x713711b63e6d8c08946FC4433e218580694aE67d",
        "\"ipfs://QmaS4YNkPTZo3BkvBHsGb3boiFVs3viHUmucFaCMHRooaB\""
      ],
      "transaction": {
        "type": "0x02",
        "from": "0x713711b63e6d8c08946fc4433e218580694ae67d",
        "to": "0x20323142295bea25c6528c2f3d822e1e2129a130",
        "gas": "0x4212a",
        "value": "0x0",
        "data": "0xd204c45e000000000000000000000000713711b63e6d8c08946fc4433e218580694ae67d00000000000000000000000000000000000000000000000000000000000000400000000000000000000000000000000000000000000000000000000000000035697066733a2f2f516d615334594e6b50545a6f33426b76424873476233626f6946567333766948556d75634661434d48526f6f61420000000000000000000000",
        "nonce": "0x13d",
        "accessList": []
      },
      "additionalContracts": [],
      "isFixedGasLimit": false
    }
  ],
  "receipts": [],
  "libraries": [],
  "pending": [
    "0xd5c00fd1d414ce187ae281eee7720532e6a6d81eaa4150b1fdd39fffd3cf5931"
  ],
  "returns": {},
  "timestamp": 1713283111,
  "chain": 11155111,
  "multi": false,
  "commit": "7d44929"
}